{
  "_format": "hh-sol-artifact-1",
  "contractName": "Credlink",
  "sourceName": "contracts/credLink.sol",
  "abi": [
    {
      "inputs": [
        {
          "internalType": "address",
          "name": "_tokenAddress",
          "type": "address"
        }
      ],
      "stateMutability": "nonpayable",
      "type": "constructor"
    },
    {
      "inputs": [
        {
          "internalType": "uint256",
          "name": "_amount",
          "type": "uint256"
        },
        {
          "internalType": "uint256",
          "name": "_duration",
          "type": "uint256"
        },
        {
          "internalType": "string",
          "name": "_purpose",
          "type": "string"
        }
      ],
      "name": "borrowFunds",
      "outputs": [],
      "stateMutability": "nonpayable",
      "type": "function"
    },
    {
      "inputs": [
        {
          "internalType": "string",
          "name": "_kycDetail",
          "type": "string"
        }
      ],
      "name": "borrowerKYC",
      "outputs": [],
      "stateMutability": "nonpayable",
      "type": "function"
    },
    {
      "inputs": [
        {
          "internalType": "uint256",
          "name": "_amount",
          "type": "uint256"
        }
      ],
      "name": "lendFunds",
      "outputs": [],
      "stateMutability": "nonpayable",
      "type": "function"
    },
    {
      "inputs": [
        {
          "internalType": "string",
          "name": "_name",
          "type": "string"
        },
        {
          "internalType": "string",
          "name": "_email",
          "type": "string"
        },
        {
          "internalType": "string",
          "name": "_phone_no",
          "type": "string"
        },
        {
          "internalType": "string",
          "name": "_company_name",
          "type": "string"
        },
        {
          "internalType": "string",
          "name": "_country",
          "type": "string"
        }
      ],
      "name": "onboardBorrower",
      "outputs": [],
      "stateMutability": "nonpayable",
      "type": "function"
    },
    {
      "inputs": [
        {
          "internalType": "uint256",
          "name": "_liquidityAmount",
          "type": "uint256"
        },
        {
          "internalType": "uint256",
          "name": "_interestRate",
          "type": "uint256"
        },
        {
          "internalType": "uint256",
          "name": "_timeLockInDays",
          "type": "uint256"
        }
      ],
      "name": "onboardLender",
      "outputs": [],
      "stateMutability": "nonpayable",
      "type": "function"
    },
    {
      "inputs": [],
      "name": "viewBorrowerHistory",
      "outputs": [
        {
          "components": [
            {
              "internalType": "address",
              "name": "borrowerAddress",
              "type": "address"
            },
            {
              "internalType": "uint256",
              "name": "borrowAmount",
              "type": "uint256"
            },
            {
              "internalType": "uint256",
              "name": "borrowTime",
              "type": "uint256"
            },
            {
              "internalType": "uint256",
              "name": "loanDuration",
              "type": "uint256"
            },
            {
              "internalType": "string",
              "name": "borrowPurpose",
              "type": "string"
            }
          ],
          "internalType": "struct Credlink.borrowHistory[]",
          "name": "history",
          "type": "tuple[]"
        }
      ],
      "stateMutability": "view",
      "type": "function"
    }
  ],
  "bytecode": "0x608060405234801561001057600080fd5b50604051611bd7380380611bd7833981810160405281019061003291906100db565b806000806101000a81548173ffffffffffffffffffffffffffffffffffffffff021916908373ffffffffffffffffffffffffffffffffffffffff16021790555050610108565b600080fd5b600073ffffffffffffffffffffffffffffffffffffffff82169050919050565b60006100a88261007d565b9050919050565b6100b88161009d565b81146100c357600080fd5b50565b6000815190506100d5816100af565b92915050565b6000602082840312156100f1576100f0610078565b5b60006100ff848285016100c6565b91505092915050565b611ac0806101176000396000f3fe608060405234801561001057600080fd5b50600436106100625760003560e01c806314be0096146100675780636ec7bd85146100835780637f07cd4f1461009f57806387e5c9d2146100bb578063aa2d5721146100d9578063e19043f5146100f5575b600080fd5b610081600480360381019061007c9190610e67565b610111565b005b61009d60048036038101906100989190610ed6565b6103d5565b005b6100b960048036038101906100b49190610fdd565b6105f2565b005b6100c3610757565b6040516100d0919061122d565b60405180910390f35b6100f360048036038101906100ee919061124f565b6108f9565b005b61010f600480360381019061010a919061127c565b610a8c565b005b60011515600360003373ffffffffffffffffffffffffffffffffffffffff1673ffffffffffffffffffffffffffffffffffffffff16815260200190815260200160002060060160009054906101000a900460ff161515146101a7576040517f08c379a000000000000000000000000000000000000000000000000000000000815260040161019e9061132c565b60405180910390fd5b60006040518060a001604052803373ffffffffffffffffffffffffffffffffffffffff168152602001858152602001428152602001848152602001838152509050600460003373ffffffffffffffffffffffffffffffffffffffff1673ffffffffffffffffffffffffffffffffffffffff16815260200190815260200160002081908060018154018082558091505060019003906000526020600020906005020160009091909190915060008201518160000160006101000a81548173ffffffffffffffffffffffffffffffffffffffff021916908373ffffffffffffffffffffffffffffffffffffffff16021790555060208201518160010155604082015181600201556060820151816003015560808201518160040190816102cb9190611558565b50505060008054906101000a900473ffffffffffffffffffffffffffffffffffffffff1673ffffffffffffffffffffffffffffffffffffffff1663a9059cbb600360003373ffffffffffffffffffffffffffffffffffffffff1673ffffffffffffffffffffffffffffffffffffffff16815260200190815260200160002060000160009054906101000a900473ffffffffffffffffffffffffffffffffffffffff16866040518363ffffffff1660e01b815260040161038b929190611648565b6020604051808303816000875af11580156103aa573d6000803e3d6000fd5b505050506040513d601f19601f820116820180604052508101906103ce91906116a9565b5050505050565b600073ffffffffffffffffffffffffffffffffffffffff163373ffffffffffffffffffffffffffffffffffffffff1603610444576040517f08c379a000000000000000000000000000000000000000000000000000000000815260040161043b90611722565b60405180910390fd5b60006040518061012001604052803373ffffffffffffffffffffffffffffffffffffffff1681526020018781526020018681526020018581526020018481526020018381526020016000151581526020016040518060200160405280600081525081526020016000815250905080600360003373ffffffffffffffffffffffffffffffffffffffff1673ffffffffffffffffffffffffffffffffffffffff16815260200190815260200160002060008201518160000160006101000a81548173ffffffffffffffffffffffffffffffffffffffff021916908373ffffffffffffffffffffffffffffffffffffffff160217905550602082015181600101908161054d9190611558565b5060408201518160020190816105639190611558565b5060608201518160030190816105799190611558565b50608082015181600401908161058f9190611558565b5060a08201518160050190816105a59190611558565b5060c08201518160060160006101000a81548160ff02191690831515021790555060e08201518160070190816105db9190611558565b506101008201518160080155905050505050505050565b6000600360003373ffffffffffffffffffffffffffffffffffffffff1673ffffffffffffffffffffffffffffffffffffffff1681526020019081526020016000209050600015158160060160009054906101000a900460ff1615151461068d576040517f08c379a00000000000000000000000000000000000000000000000000000000081526004016106849061178e565b60405180910390fd5b600081600101805461069e9061137b565b9050116106e0576040517f08c379a00000000000000000000000000000000000000000000000000000000081526004016106d7906117fa565b60405180910390fd5b6000825111610724576040517f08c379a000000000000000000000000000000000000000000000000000000000815260040161071b90611866565b60405180910390fd5b818160070190816107359190611558565b5060018160060160006101000a81548160ff0219169083151502179055505050565b6060600460003373ffffffffffffffffffffffffffffffffffffffff1673ffffffffffffffffffffffffffffffffffffffff168152602001908152602001600020805480602002602001604051908101604052809291908181526020016000905b828210156108f057838290600052602060002090600502016040518060a00160405290816000820160009054906101000a900473ffffffffffffffffffffffffffffffffffffffff1673ffffffffffffffffffffffffffffffffffffffff1673ffffffffffffffffffffffffffffffffffffffff16815260200160018201548152602001600282015481526020016003820154815260200160048201805461085f9061137b565b80601f016020809104026020016040519081016040528092919081815260200182805461088b9061137b565b80156108d85780601f106108ad576101008083540402835291602001916108d8565b820191906000526020600020905b8154815290600101906020018083116108bb57829003601f168201915b505050505081525050815260200190600101906107b8565b50505050905090565b60011515600260003373ffffffffffffffffffffffffffffffffffffffff1673ffffffffffffffffffffffffffffffffffffffff16815260200190815260200160002060050160009054906101000a900460ff1615151461098f576040517f08c379a0000000000000000000000000000000000000000000000000000000008152600401610986906118d2565b60405180910390fd5b60008054906101000a900473ffffffffffffffffffffffffffffffffffffffff1673ffffffffffffffffffffffffffffffffffffffff166323b872dd3330846040518463ffffffff1660e01b81526004016109ec939291906118f2565b6020604051808303816000875af1158015610a0b573d6000803e3d6000fd5b505050506040513d601f19601f82011682018060405250810190610a2f91906116a9565b5080600260003373ffffffffffffffffffffffffffffffffffffffff1673ffffffffffffffffffffffffffffffffffffffff1681526020019081526020016000206001016000828254610a829190611958565b9250508190555050565b60008211610acf576040517f08c379a0000000000000000000000000000000000000000000000000000000008152600401610ac6906119d8565b60405180910390fd5b601e821115610b13576040517f08c379a0000000000000000000000000000000000000000000000000000000008152600401610b0a90611a6a565b60405180910390fd5b60008054906101000a900473ffffffffffffffffffffffffffffffffffffffff1673ffffffffffffffffffffffffffffffffffffffff166323b872dd3330866040518463ffffffff1660e01b8152600401610b70939291906118f2565b6020604051808303816000875af1158015610b8f573d6000803e3d6000fd5b505050506040513d601f19601f82011682018060405250810190610bb391906116a9565b5060006040518060c001604052803373ffffffffffffffffffffffffffffffffffffffff1681526020018581526020016000815260200183815260200142815260200160011515815250905080600260003373ffffffffffffffffffffffffffffffffffffffff1673ffffffffffffffffffffffffffffffffffffffff16815260200190815260200160002060008201518160000160006101000a81548173ffffffffffffffffffffffffffffffffffffffff021916908373ffffffffffffffffffffffffffffffffffffffff1602179055506020820151816001015560408201518160020155606082015181600301556080820151816004015560a08201518160050160006101000a81548160ff02191690831515021790555090505050505050565b6000604051905090565b600080fd5b600080fd5b6000819050919050565b610cfe81610ceb565b8114610d0957600080fd5b50565b600081359050610d1b81610cf5565b92915050565b600080fd5b600080fd5b6000601f19601f8301169050919050565b7f4e487b7100000000000000000000000000000000000000000000000000000000600052604160045260246000fd5b610d7482610d2b565b810181811067ffffffffffffffff82111715610d9357610d92610d3c565b5b80604052505050565b6000610da6610cd7565b9050610db28282610d6b565b919050565b600067ffffffffffffffff821115610dd257610dd1610d3c565b5b610ddb82610d2b565b9050602081019050919050565b82818337600083830152505050565b6000610e0a610e0584610db7565b610d9c565b905082815260208101848484011115610e2657610e25610d26565b5b610e31848285610de8565b509392505050565b600082601f830112610e4e57610e4d610d21565b5b8135610e5e848260208601610df7565b91505092915050565b600080600060608486031215610e8057610e7f610ce1565b5b6000610e8e86828701610d0c565b9350506020610e9f86828701610d0c565b925050604084013567ffffffffffffffff811115610ec057610ebf610ce6565b5b610ecc86828701610e39565b9150509250925092565b600080600080600060a08688031215610ef257610ef1610ce1565b5b600086013567ffffffffffffffff811115610f1057610f0f610ce6565b5b610f1c88828901610e39565b955050602086013567ffffffffffffffff811115610f3d57610f3c610ce6565b5b610f4988828901610e39565b945050604086013567ffffffffffffffff811115610f6a57610f69610ce6565b5b610f7688828901610e39565b935050606086013567ffffffffffffffff811115610f9757610f96610ce6565b5b610fa388828901610e39565b925050608086013567ffffffffffffffff811115610fc457610fc3610ce6565b5b610fd088828901610e39565b9150509295509295909350565b600060208284031215610ff357610ff2610ce1565b5b600082013567ffffffffffffffff81111561101157611010610ce6565b5b61101d84828501610e39565b91505092915050565b600081519050919050565b600082825260208201905092915050565b6000819050602082019050919050565b600073ffffffffffffffffffffffffffffffffffffffff82169050919050565b600061107d82611052565b9050919050565b61108d81611072565b82525050565b61109c81610ceb565b82525050565b600081519050919050565b600082825260208201905092915050565b60005b838110156110dc5780820151818401526020810190506110c1565b60008484015250505050565b60006110f3826110a2565b6110fd81856110ad565b935061110d8185602086016110be565b61111681610d2b565b840191505092915050565b600060a0830160008301516111396000860182611084565b50602083015161114c6020860182611093565b50604083015161115f6040860182611093565b5060608301516111726060860182611093565b506080830151848203608086015261118a82826110e8565b9150508091505092915050565b60006111a38383611121565b905092915050565b6000602082019050919050565b60006111c382611026565b6111cd8185611031565b9350836020820285016111df85611042565b8060005b8581101561121b57848403895281516111fc8582611197565b9450611207836111ab565b925060208a019950506001810190506111e3565b50829750879550505050505092915050565b6000602082019050818103600083015261124781846111b8565b905092915050565b60006020828403121561126557611264610ce1565b5b600061127384828501610d0c565b91505092915050565b60008060006060848603121561129557611294610ce1565b5b60006112a386828701610d0c565b93505060206112b486828701610d0c565b92505060406112c586828701610d0c565b9150509250925092565b600082825260208201905092915050565b7f556e76657269666965642075736572732063616e6e6f7420626f72726f770000600082015250565b6000611316601e836112cf565b9150611321826112e0565b602082019050919050565b6000602082019050818103600083015261134581611309565b9050919050565b7f4e487b7100000000000000000000000000000000000000000000000000000000600052602260045260246000fd5b6000600282049050600182168061139357607f821691505b6020821081036113a6576113a561134c565b5b50919050565b60008190508160005260206000209050919050565b60006020601f8301049050919050565b600082821b905092915050565b60006008830261140e7fffffffffffffffffffffffffffffffffffffffffffffffffffffffffffffffff826113d1565b61141886836113d1565b95508019841693508086168417925050509392505050565b6000819050919050565b600061145561145061144b84610ceb565b611430565b610ceb565b9050919050565b6000819050919050565b61146f8361143a565b61148361147b8261145c565b8484546113de565b825550505050565b600090565b61149861148b565b6114a3818484611466565b505050565b5b818110156114c7576114bc600082611490565b6001810190506114a9565b5050565b601f82111561150c576114dd816113ac565b6114e6846113c1565b810160208510156114f5578190505b611509611501856113c1565b8301826114a8565b50505b505050565b600082821c905092915050565b600061152f60001984600802611511565b1980831691505092915050565b6000611548838361151e565b9150826002028217905092915050565b611561826110a2565b67ffffffffffffffff81111561157a57611579610d3c565b5b611584825461137b565b61158f8282856114cb565b600060209050601f8311600181146115c257600084156115b0578287015190505b6115ba858261153c565b865550611622565b601f1984166115d0866113ac565b60005b828110156115f8578489015182556001820191506020850194506020810190506115d3565b868310156116155784890151611611601f89168261151e565b8355505b6001600288020188555050505b505050505050565b61163381611072565b82525050565b61164281610ceb565b82525050565b600060408201905061165d600083018561162a565b61166a6020830184611639565b9392505050565b60008115159050919050565b61168681611671565b811461169157600080fd5b50565b6000815190506116a38161167d565b92915050565b6000602082840312156116bf576116be610ce1565b5b60006116cd84828501611694565b91505092915050565b7f496e76616c696420616464726573730000000000000000000000000000000000600082015250565b600061170c600f836112cf565b9150611717826116d6565b602082019050919050565b6000602082019050818103600083015261173b816116ff565b9050919050565b7f63616e6e6f742076657269667920747769636500000000000000000000000000600082015250565b60006117786013836112cf565b915061178382611742565b602082019050919050565b600060208201905081810360008301526117a78161176b565b9050919050565b7f426f72726f77657220646f6573206e6f74206578697374000000000000000000600082015250565b60006117e46017836112cf565b91506117ef826117ae565b602082019050919050565b60006020820190508181036000830152611813816117d7565b9050919050565b7f496e76616c6964204b59432064657461696c7300000000000000000000000000600082015250565b60006118506013836112cf565b915061185b8261181a565b602082019050919050565b6000602082019050818103600083015261187f81611843565b9050919050565b7f4e6f7420616e20616374697665206c656e646572000000000000000000000000600082015250565b60006118bc6014836112cf565b91506118c782611886565b602082019050919050565b600060208201905081810360008301526118eb816118af565b9050919050565b6000606082019050611907600083018661162a565b611914602083018561162a565b6119216040830184611639565b949350505050565b7f4e487b7100000000000000000000000000000000000000000000000000000000600052601160045260246000fd5b600061196382610ceb565b915061196e83610ceb565b925082820190508082111561198657611985611929565b5b92915050565b7f696e7465726573742072617465206973206c657373207468616e207a65726f00600082015250565b60006119c2601f836112cf565b91506119cd8261198c565b602082019050919050565b600060208201905081810360008301526119f1816119b5565b9050919050565b7f696e74657265737420726174652069732067726561746572207468616e20333060008201527f2025000000000000000000000000000000000000000000000000000000000000602082015250565b6000611a546022836112cf565b9150611a5f826119f8565b604082019050919050565b60006020820190508181036000830152611a8381611a47565b905091905056fea264697066735822122008f0728ab5a08711df5b2bcbc89250e095b578348f5839b377986c995b42c4d264736f6c634300081c0033",
  "linkReferences": {},
  "deployedLinkReferences": {}
}