{
  "_format": "hh-sol-artifact-1",
  "contractName": "Credlink",
  "sourceName": "contracts/credLink.sol",
  "abi": [
    {
      "inputs": [
        {
          "internalType": "address",
          "name": "_tokenAddress",
          "type": "address"
        }
      ],
      "stateMutability": "nonpayable",
      "type": "constructor"
    },
    {
      "inputs": [
        {
          "internalType": "uint256",
          "name": "_amount",
          "type": "uint256"
        },
        {
          "internalType": "uint256",
          "name": "_duration",
          "type": "uint256"
        },
        {
          "internalType": "string",
          "name": "_purpose",
          "type": "string"
        }
      ],
      "name": "borrowFunds",
      "outputs": [],
      "stateMutability": "nonpayable",
      "type": "function"
    },
    {
      "inputs": [
        {
          "internalType": "string",
          "name": "_kycDetail",
          "type": "string"
        }
      ],
      "name": "borrowerKYC",
      "outputs": [],
      "stateMutability": "nonpayable",
      "type": "function"
    },
    {
      "inputs": [
        {
          "internalType": "address",
          "name": "_borrowerAddress",
          "type": "address"
        }
      ],
      "name": "getBorrowerDetails",
      "outputs": [
        {
          "components": [
            {
              "internalType": "address",
              "name": "borrowerAddress",
              "type": "address"
            },
            {
              "internalType": "string",
              "name": "name",
              "type": "string"
            },
            {
              "internalType": "string",
              "name": "email",
              "type": "string"
            },
            {
              "internalType": "string",
              "name": "phone_no",
              "type": "string"
            },
            {
              "internalType": "string",
              "name": "companyName",
              "type": "string"
            },
            {
              "internalType": "string",
              "name": "country",
              "type": "string"
            },
            {
              "internalType": "bool",
              "name": "isVerified",
              "type": "bool"
            },
            {
              "internalType": "string",
              "name": "kycDetails",
              "type": "string"
            },
            {
              "internalType": "uint256",
              "name": "borrowedAmount",
              "type": "uint256"
            }
          ],
          "internalType": "struct Credlink.Borrower",
          "name": "borrower",
          "type": "tuple"
        }
      ],
      "stateMutability": "view",
      "type": "function"
    },
    {
      "inputs": [],
      "name": "lendFunds",
      "outputs": [],
      "stateMutability": "payable",
      "type": "function"
    },
    {
      "inputs": [
        {
          "internalType": "string",
          "name": "_name",
          "type": "string"
        },
        {
          "internalType": "string",
          "name": "_email",
          "type": "string"
        },
        {
          "internalType": "string",
          "name": "_phone_no",
          "type": "string"
        },
        {
          "internalType": "string",
          "name": "_company_name",
          "type": "string"
        },
        {
          "internalType": "string",
          "name": "_country",
          "type": "string"
        }
      ],
      "name": "onboardBorrower",
      "outputs": [],
      "stateMutability": "nonpayable",
      "type": "function"
    },
    {
      "inputs": [
        {
          "internalType": "uint256",
          "name": "_liquidityAmount",
          "type": "uint256"
        },
        {
          "internalType": "uint256",
          "name": "_interestRate",
          "type": "uint256"
        },
        {
          "internalType": "uint256",
          "name": "_timeLockInDays",
          "type": "uint256"
        }
      ],
      "name": "onboardLender",
      "outputs": [],
      "stateMutability": "nonpayable",
      "type": "function"
    },
    {
      "inputs": [],
      "name": "viewBorrowerHistory",
      "outputs": [
        {
          "components": [
            {
              "internalType": "address",
              "name": "borrowerAddress",
              "type": "address"
            },
            {
              "internalType": "uint256",
              "name": "borrowAmount",
              "type": "uint256"
            },
            {
              "internalType": "uint256",
              "name": "borrowTime",
              "type": "uint256"
            },
            {
              "internalType": "uint256",
              "name": "loanDuration",
              "type": "uint256"
            },
            {
              "internalType": "string",
              "name": "borrowPurpose",
              "type": "string"
            }
          ],
          "internalType": "struct Credlink.borrowHistory[]",
          "name": "history",
          "type": "tuple[]"
        }
      ],
      "stateMutability": "view",
      "type": "function"
    }
  ],
  "bytecode": "0x608060405234801561001057600080fd5b506040516122da3803806122da833981810160405281019061003291906100db565b806000806101000a81548173ffffffffffffffffffffffffffffffffffffffff021916908373ffffffffffffffffffffffffffffffffffffffff16021790555050610108565b600080fd5b600073ffffffffffffffffffffffffffffffffffffffff82169050919050565b60006100a88261007d565b9050919050565b6100b88161009d565b81146100c357600080fd5b50565b6000815190506100d5816100af565b92915050565b6000602082840312156100f1576100f0610078565b5b60006100ff848285016100c6565b91505092915050565b6121c3806101176000396000f3fe6080604052600436106100705760003560e01c80637f07cd4f1161004e5780637f07cd4f146100d157806387e5c9d2146100fa578063e19043f514610125578063e52bdbe21461014e57610070565b806314be0096146100755780631a8785771461009e5780636ec7bd85146100a8575b600080fd5b34801561008157600080fd5b5061009c600480360381019061009791906113ff565b61018b565b005b6100a661044f565b005b3480156100b457600080fd5b506100cf60048036038101906100ca919061146e565b61065b565b005b3480156100dd57600080fd5b506100f860048036038101906100f39190611575565b610878565b005b34801561010657600080fd5b5061010f6109dd565b60405161011c91906117c5565b60405180910390f35b34801561013157600080fd5b5061014c600480360381019061014791906117e7565b610b7f565b005b34801561015a57600080fd5b5061017560048036038101906101709190611866565b610dca565b6040516101829190611996565b60405180910390f35b60011515600360003373ffffffffffffffffffffffffffffffffffffffff1673ffffffffffffffffffffffffffffffffffffffff16815260200190815260200160002060060160009054906101000a900460ff16151514610221576040517f08c379a000000000000000000000000000000000000000000000000000000000815260040161021890611a15565b60405180910390fd5b60006040518060a001604052803373ffffffffffffffffffffffffffffffffffffffff168152602001858152602001428152602001848152602001838152509050600460003373ffffffffffffffffffffffffffffffffffffffff1673ffffffffffffffffffffffffffffffffffffffff16815260200190815260200160002081908060018154018082558091505060019003906000526020600020906005020160009091909190915060008201518160000160006101000a81548173ffffffffffffffffffffffffffffffffffffffff021916908373ffffffffffffffffffffffffffffffffffffffff16021790555060208201518160010155604082015181600201556060820151816003015560808201518160040190816103459190611c41565b50505060008054906101000a900473ffffffffffffffffffffffffffffffffffffffff1673ffffffffffffffffffffffffffffffffffffffff1663a9059cbb600360003373ffffffffffffffffffffffffffffffffffffffff1673ffffffffffffffffffffffffffffffffffffffff16815260200190815260200160002060000160009054906101000a900473ffffffffffffffffffffffffffffffffffffffff16866040518363ffffffff1660e01b8152600401610405929190611d31565b6020604051808303816000875af1158015610424573d6000803e3d6000fd5b505050506040513d601f19601f820116820180604052508101906104489190611d86565b5050505050565b60003411610492576040517f08c379a000000000000000000000000000000000000000000000000000000000815260040161048990611e25565b60405180910390fd5b33600260003373ffffffffffffffffffffffffffffffffffffffff1673ffffffffffffffffffffffffffffffffffffffff16815260200190815260200160002060000160006101000a81548173ffffffffffffffffffffffffffffffffffffffff021916908373ffffffffffffffffffffffffffffffffffffffff16021790555034600260003373ffffffffffffffffffffffffffffffffffffffff1673ffffffffffffffffffffffffffffffffffffffff16815260200190815260200160002060010160008282546105659190611e74565b925050819055506001600260003373ffffffffffffffffffffffffffffffffffffffff1673ffffffffffffffffffffffffffffffffffffffff16815260200190815260200160002060050160006101000a81548160ff0219169083151502179055506000600260003373ffffffffffffffffffffffffffffffffffffffff1673ffffffffffffffffffffffffffffffffffffffff16815260200190815260200160002060040154036106595742600260003373ffffffffffffffffffffffffffffffffffffffff1673ffffffffffffffffffffffffffffffffffffffff168152602001908152602001600020600401819055505b565b600073ffffffffffffffffffffffffffffffffffffffff163373ffffffffffffffffffffffffffffffffffffffff16036106ca576040517f08c379a00000000000000000000000000000000000000000000000000000000081526004016106c190611ef4565b60405180910390fd5b60006040518061012001604052803373ffffffffffffffffffffffffffffffffffffffff1681526020018781526020018681526020018581526020018481526020018381526020016000151581526020016040518060200160405280600081525081526020016000815250905080600360003373ffffffffffffffffffffffffffffffffffffffff1673ffffffffffffffffffffffffffffffffffffffff16815260200190815260200160002060008201518160000160006101000a81548173ffffffffffffffffffffffffffffffffffffffff021916908373ffffffffffffffffffffffffffffffffffffffff16021790555060208201518160010190816107d39190611c41565b5060408201518160020190816107e99190611c41565b5060608201518160030190816107ff9190611c41565b5060808201518160040190816108159190611c41565b5060a082015181600501908161082b9190611c41565b5060c08201518160060160006101000a81548160ff02191690831515021790555060e08201518160070190816108619190611c41565b506101008201518160080155905050505050505050565b6000600360003373ffffffffffffffffffffffffffffffffffffffff1673ffffffffffffffffffffffffffffffffffffffff1681526020019081526020016000209050600015158160060160009054906101000a900460ff16151514610913576040517f08c379a000000000000000000000000000000000000000000000000000000000815260040161090a90611f60565b60405180910390fd5b600081600101805461092490611a64565b905011610966576040517f08c379a000000000000000000000000000000000000000000000000000000000815260040161095d90611fcc565b60405180910390fd5b60008251116109aa576040517f08c379a00000000000000000000000000000000000000000000000000000000081526004016109a190612038565b60405180910390fd5b818160070190816109bb9190611c41565b5060018160060160006101000a81548160ff0219169083151502179055505050565b6060600460003373ffffffffffffffffffffffffffffffffffffffff1673ffffffffffffffffffffffffffffffffffffffff168152602001908152602001600020805480602002602001604051908101604052809291908181526020016000905b82821015610b7657838290600052602060002090600502016040518060a00160405290816000820160009054906101000a900473ffffffffffffffffffffffffffffffffffffffff1673ffffffffffffffffffffffffffffffffffffffff1673ffffffffffffffffffffffffffffffffffffffff168152602001600182015481526020016002820154815260200160038201548152602001600482018054610ae590611a64565b80601f0160208091040260200160405190810160405280929190818152602001828054610b1190611a64565b8015610b5e5780601f10610b3357610100808354040283529160200191610b5e565b820191906000526020600020905b815481529060010190602001808311610b4157829003601f168201915b50505050508152505081526020019060010190610a3e565b50505050905090565b60008211610bc2576040517f08c379a0000000000000000000000000000000000000000000000000000000008152600401610bb9906120a4565b60405180910390fd5b601e821115610c06576040517f08c379a0000000000000000000000000000000000000000000000000000000008152600401610bfd90612136565b60405180910390fd5b60008054906101000a900473ffffffffffffffffffffffffffffffffffffffff1673ffffffffffffffffffffffffffffffffffffffff166323b872dd3330866040518463ffffffff1660e01b8152600401610c6393929190612156565b6020604051808303816000875af1158015610c82573d6000803e3d6000fd5b505050506040513d601f19601f82011682018060405250810190610ca69190611d86565b5060006040518060c001604052803373ffffffffffffffffffffffffffffffffffffffff1681526020018581526020016000815260200183815260200142815260200160011515815250905080600260003373ffffffffffffffffffffffffffffffffffffffff1673ffffffffffffffffffffffffffffffffffffffff16815260200190815260200160002060008201518160000160006101000a81548173ffffffffffffffffffffffffffffffffffffffff021916908373ffffffffffffffffffffffffffffffffffffffff1602179055506020820151816001015560408201518160020155606082015181600301556080820151816004015560a08201518160050160006101000a81548160ff02191690831515021790555090505050505050565b610dd261120b565b600360008373ffffffffffffffffffffffffffffffffffffffff1673ffffffffffffffffffffffffffffffffffffffff168152602001908152602001600020604051806101200160405290816000820160009054906101000a900473ffffffffffffffffffffffffffffffffffffffff1673ffffffffffffffffffffffffffffffffffffffff1673ffffffffffffffffffffffffffffffffffffffff168152602001600182018054610e8390611a64565b80601f0160208091040260200160405190810160405280929190818152602001828054610eaf90611a64565b8015610efc5780601f10610ed157610100808354040283529160200191610efc565b820191906000526020600020905b815481529060010190602001808311610edf57829003601f168201915b50505050508152602001600282018054610f1590611a64565b80601f0160208091040260200160405190810160405280929190818152602001828054610f4190611a64565b8015610f8e5780601f10610f6357610100808354040283529160200191610f8e565b820191906000526020600020905b815481529060010190602001808311610f7157829003601f168201915b50505050508152602001600382018054610fa790611a64565b80601f0160208091040260200160405190810160405280929190818152602001828054610fd390611a64565b80156110205780601f10610ff557610100808354040283529160200191611020565b820191906000526020600020905b81548152906001019060200180831161100357829003601f168201915b5050505050815260200160048201805461103990611a64565b80601f016020809104026020016040519081016040528092919081815260200182805461106590611a64565b80156110b25780601f10611087576101008083540402835291602001916110b2565b820191906000526020600020905b81548152906001019060200180831161109557829003601f168201915b505050505081526020016005820180546110cb90611a64565b80601f01602080910402602001604051908101604052809291908181526020018280546110f790611a64565b80156111445780601f1061111957610100808354040283529160200191611144565b820191906000526020600020905b81548152906001019060200180831161112757829003601f168201915b505050505081526020016006820160009054906101000a900460ff1615151515815260200160078201805461117890611a64565b80601f01602080910402602001604051908101604052809291908181526020018280546111a490611a64565b80156111f15780601f106111c6576101008083540402835291602001916111f1565b820191906000526020600020905b8154815290600101906020018083116111d457829003601f168201915b505050505081526020016008820154815250509050919050565b604051806101200160405280600073ffffffffffffffffffffffffffffffffffffffff168152602001606081526020016060815260200160608152602001606081526020016060815260200160001515815260200160608152602001600081525090565b6000604051905090565b600080fd5b600080fd5b6000819050919050565b61129681611283565b81146112a157600080fd5b50565b6000813590506112b38161128d565b92915050565b600080fd5b600080fd5b6000601f19601f8301169050919050565b7f4e487b7100000000000000000000000000000000000000000000000000000000600052604160045260246000fd5b61130c826112c3565b810181811067ffffffffffffffff8211171561132b5761132a6112d4565b5b80604052505050565b600061133e61126f565b905061134a8282611303565b919050565b600067ffffffffffffffff82111561136a576113696112d4565b5b611373826112c3565b9050602081019050919050565b82818337600083830152505050565b60006113a261139d8461134f565b611334565b9050828152602081018484840111156113be576113bd6112be565b5b6113c9848285611380565b509392505050565b600082601f8301126113e6576113e56112b9565b5b81356113f684826020860161138f565b91505092915050565b60008060006060848603121561141857611417611279565b5b6000611426868287016112a4565b9350506020611437868287016112a4565b925050604084013567ffffffffffffffff8111156114585761145761127e565b5b611464868287016113d1565b9150509250925092565b600080600080600060a0868803121561148a57611489611279565b5b600086013567ffffffffffffffff8111156114a8576114a761127e565b5b6114b4888289016113d1565b955050602086013567ffffffffffffffff8111156114d5576114d461127e565b5b6114e1888289016113d1565b945050604086013567ffffffffffffffff8111156115025761150161127e565b5b61150e888289016113d1565b935050606086013567ffffffffffffffff81111561152f5761152e61127e565b5b61153b888289016113d1565b925050608086013567ffffffffffffffff81111561155c5761155b61127e565b5b611568888289016113d1565b9150509295509295909350565b60006020828403121561158b5761158a611279565b5b600082013567ffffffffffffffff8111156115a9576115a861127e565b5b6115b5848285016113d1565b91505092915050565b600081519050919050565b600082825260208201905092915050565b6000819050602082019050919050565b600073ffffffffffffffffffffffffffffffffffffffff82169050919050565b6000611615826115ea565b9050919050565b6116258161160a565b82525050565b61163481611283565b82525050565b600081519050919050565b600082825260208201905092915050565b60005b83811015611674578082015181840152602081019050611659565b60008484015250505050565b600061168b8261163a565b6116958185611645565b93506116a5818560208601611656565b6116ae816112c3565b840191505092915050565b600060a0830160008301516116d1600086018261161c565b5060208301516116e4602086018261162b565b5060408301516116f7604086018261162b565b50606083015161170a606086018261162b565b50608083015184820360808601526117228282611680565b9150508091505092915050565b600061173b83836116b9565b905092915050565b6000602082019050919050565b600061175b826115be565b61176581856115c9565b935083602082028501611777856115da565b8060005b858110156117b35784840389528151611794858261172f565b945061179f83611743565b925060208a0199505060018101905061177b565b50829750879550505050505092915050565b600060208201905081810360008301526117df8184611750565b905092915050565b600080600060608486031215611800576117ff611279565b5b600061180e868287016112a4565b935050602061181f868287016112a4565b9250506040611830868287016112a4565b9150509250925092565b6118438161160a565b811461184e57600080fd5b50565b6000813590506118608161183a565b92915050565b60006020828403121561187c5761187b611279565b5b600061188a84828501611851565b91505092915050565b60008115159050919050565b6118a881611893565b82525050565b6000610120830160008301516118c7600086018261161c565b50602083015184820360208601526118df8282611680565b915050604083015184820360408601526118f98282611680565b915050606083015184820360608601526119138282611680565b9150506080830151848203608086015261192d8282611680565b91505060a083015184820360a08601526119478282611680565b91505060c083015161195c60c086018261189f565b5060e083015184820360e08601526119748282611680565b91505061010083015161198b61010086018261162b565b508091505092915050565b600060208201905081810360008301526119b081846118ae565b905092915050565b600082825260208201905092915050565b7f556e76657269666965642075736572732063616e6e6f7420626f72726f770000600082015250565b60006119ff601e836119b8565b9150611a0a826119c9565b602082019050919050565b60006020820190508181036000830152611a2e816119f2565b9050919050565b7f4e487b7100000000000000000000000000000000000000000000000000000000600052602260045260246000fd5b60006002820490506001821680611a7c57607f821691505b602082108103611a8f57611a8e611a35565b5b50919050565b60008190508160005260206000209050919050565b60006020601f8301049050919050565b600082821b905092915050565b600060088302611af77fffffffffffffffffffffffffffffffffffffffffffffffffffffffffffffffff82611aba565b611b018683611aba565b95508019841693508086168417925050509392505050565b6000819050919050565b6000611b3e611b39611b3484611283565b611b19565b611283565b9050919050565b6000819050919050565b611b5883611b23565b611b6c611b6482611b45565b848454611ac7565b825550505050565b600090565b611b81611b74565b611b8c818484611b4f565b505050565b5b81811015611bb057611ba5600082611b79565b600181019050611b92565b5050565b601f821115611bf557611bc681611a95565b611bcf84611aaa565b81016020851015611bde578190505b611bf2611bea85611aaa565b830182611b91565b50505b505050565b600082821c905092915050565b6000611c1860001984600802611bfa565b1980831691505092915050565b6000611c318383611c07565b9150826002028217905092915050565b611c4a8261163a565b67ffffffffffffffff811115611c6357611c626112d4565b5b611c6d8254611a64565b611c78828285611bb4565b600060209050601f831160018114611cab5760008415611c99578287015190505b611ca38582611c25565b865550611d0b565b601f198416611cb986611a95565b60005b82811015611ce157848901518255600182019150602085019450602081019050611cbc565b86831015611cfe5784890151611cfa601f891682611c07565b8355505b6001600288020188555050505b505050505050565b611d1c8161160a565b82525050565b611d2b81611283565b82525050565b6000604082019050611d466000830185611d13565b611d536020830184611d22565b9392505050565b611d6381611893565b8114611d6e57600080fd5b50565b600081519050611d8081611d5a565b92915050565b600060208284031215611d9c57611d9b611279565b5b6000611daa84828501611d71565b91505092915050565b7f4d7573742073656e642045544820746f2070726f76696465206c69717569646960008201527f7479000000000000000000000000000000000000000000000000000000000000602082015250565b6000611e0f6022836119b8565b9150611e1a82611db3565b604082019050919050565b60006020820190508181036000830152611e3e81611e02565b9050919050565b7f4e487b7100000000000000000000000000000000000000000000000000000000600052601160045260246000fd5b6000611e7f82611283565b9150611e8a83611283565b9250828201905080821115611ea257611ea1611e45565b5b92915050565b7f496e76616c696420616464726573730000000000000000000000000000000000600082015250565b6000611ede600f836119b8565b9150611ee982611ea8565b602082019050919050565b60006020820190508181036000830152611f0d81611ed1565b9050919050565b7f63616e6e6f742076657269667920747769636500000000000000000000000000600082015250565b6000611f4a6013836119b8565b9150611f5582611f14565b602082019050919050565b60006020820190508181036000830152611f7981611f3d565b9050919050565b7f426f72726f77657220646f6573206e6f74206578697374000000000000000000600082015250565b6000611fb66017836119b8565b9150611fc182611f80565b602082019050919050565b60006020820190508181036000830152611fe581611fa9565b9050919050565b7f496e76616c6964204b59432064657461696c7300000000000000000000000000600082015250565b60006120226013836119b8565b915061202d82611fec565b602082019050919050565b6000602082019050818103600083015261205181612015565b9050919050565b7f696e7465726573742072617465206973206c657373207468616e207a65726f00600082015250565b600061208e601f836119b8565b915061209982612058565b602082019050919050565b600060208201905081810360008301526120bd81612081565b9050919050565b7f696e74657265737420726174652069732067726561746572207468616e20333060008201527f2025000000000000000000000000000000000000000000000000000000000000602082015250565b60006121206022836119b8565b915061212b826120c4565b604082019050919050565b6000602082019050818103600083015261214f81612113565b9050919050565b600060608201905061216b6000830186611d13565b6121786020830185611d13565b6121856040830184611d22565b94935050505056fea2646970667358221220210264b0c128c16ec5a9585113f93fc2ea4d1a18b6653b669fd59db8298dd68764736f6c634300081c0033",
  "linkReferences": {},
  "deployedLinkReferences": {}
}