{
  "contracts/credLink.sol": {
    "Credlink": {
      "abi": [
        {
          "inputs": [
            {
              "internalType": "address",
              "name": "_tokenAddress",
              "type": "address"
            }
          ],
          "stateMutability": "nonpayable",
          "type": "constructor"
        },
        {
          "inputs": [
            {
              "internalType": "uint256",
              "name": "_liquidityAmount",
              "type": "uint256"
            },
            {
              "internalType": "uint256",
              "name": "_interestRate",
              "type": "uint256"
            },
            {
              "internalType": "uint256",
              "name": "_timeLock",
              "type": "uint256"
            }
          ],
          "name": "onboardLender",
          "outputs": [],
          "stateMutability": "nonpayable",
          "type": "function"
        }
      ],
      "evm": {
        "bytecode": {
          "linkReferences": {},
          "object": "608060405234801561001057600080fd5b506040516103c23803806103c2833981810160405281019061003291906100db565b806000806101000a81548173ffffffffffffffffffffffffffffffffffffffff021916908373ffffffffffffffffffffffffffffffffffffffff16021790555050610108565b600080fd5b600073ffffffffffffffffffffffffffffffffffffffff82169050919050565b60006100a88261007d565b9050919050565b6100b88161009d565b81146100c357600080fd5b50565b6000815190506100d5816100af565b92915050565b6000602082840312156100f1576100f0610078565b5b60006100ff848285016100c6565b91505092915050565b6102ab806101176000396000f3fe608060405234801561001057600080fd5b506004361061002b5760003560e01c8063e19043f514610030575b600080fd5b61004a60048036038101906100459190610113565b61004c565b005b6000821161008f576040517f08c379a0000000000000000000000000000000000000000000000000000000008152600401610086906101c3565b60405180910390fd5b601e8211156100d3576040517f08c379a00000000000000000000000000000000000000000000000000000000081526004016100ca90610255565b60405180910390fd5b505050565b600080fd5b6000819050919050565b6100f0816100dd565b81146100fb57600080fd5b50565b60008135905061010d816100e7565b92915050565b60008060006060848603121561012c5761012b6100d8565b5b600061013a868287016100fe565b935050602061014b868287016100fe565b925050604061015c868287016100fe565b9150509250925092565b600082825260208201905092915050565b7f696e7465726573742072617465206973206c657373207468616e207a65726f00600082015250565b60006101ad601f83610166565b91506101b882610177565b602082019050919050565b600060208201905081810360008301526101dc816101a0565b9050919050565b7f696e74657265737420726174652069732067726561746572207468616e20333060008201527f2025000000000000000000000000000000000000000000000000000000000000602082015250565b600061023f602283610166565b915061024a826101e3565b604082019050919050565b6000602082019050818103600083015261026e81610232565b905091905056fea2646970667358221220b08393821c8dac196bd8733d07a5030c8ddc8d85c7b1469bb505cd55dc47255964736f6c634300081c0033",
          "opcodes": "PUSH1 0x80 PUSH1 0x40 MSTORE CALLVALUE DUP1 ISZERO PUSH2 0x10 JUMPI PUSH1 0x0 DUP1 REVERT JUMPDEST POP PUSH1 0x40 MLOAD PUSH2 0x3C2 CODESIZE SUB DUP1 PUSH2 0x3C2 DUP4 CODECOPY DUP2 DUP2 ADD PUSH1 0x40 MSTORE DUP2 ADD SWAP1 PUSH2 0x32 SWAP2 SWAP1 PUSH2 0xDB JUMP JUMPDEST DUP1 PUSH1 0x0 DUP1 PUSH2 0x100 EXP DUP2 SLOAD DUP2 PUSH20 0xFFFFFFFFFFFFFFFFFFFFFFFFFFFFFFFFFFFFFFFF MUL NOT AND SWAP1 DUP4 PUSH20 0xFFFFFFFFFFFFFFFFFFFFFFFFFFFFFFFFFFFFFFFF AND MUL OR SWAP1 SSTORE POP POP PUSH2 0x108 JUMP JUMPDEST PUSH1 0x0 DUP1 REVERT JUMPDEST PUSH1 0x0 PUSH20 0xFFFFFFFFFFFFFFFFFFFFFFFFFFFFFFFFFFFFFFFF DUP3 AND SWAP1 POP SWAP2 SWAP1 POP JUMP JUMPDEST PUSH1 0x0 PUSH2 0xA8 DUP3 PUSH2 0x7D JUMP JUMPDEST SWAP1 POP SWAP2 SWAP1 POP JUMP JUMPDEST PUSH2 0xB8 DUP2 PUSH2 0x9D JUMP JUMPDEST DUP2 EQ PUSH2 0xC3 JUMPI PUSH1 0x0 DUP1 REVERT JUMPDEST POP JUMP JUMPDEST PUSH1 0x0 DUP2 MLOAD SWAP1 POP PUSH2 0xD5 DUP2 PUSH2 0xAF JUMP JUMPDEST SWAP3 SWAP2 POP POP JUMP JUMPDEST PUSH1 0x0 PUSH1 0x20 DUP3 DUP5 SUB SLT ISZERO PUSH2 0xF1 JUMPI PUSH2 0xF0 PUSH2 0x78 JUMP JUMPDEST JUMPDEST PUSH1 0x0 PUSH2 0xFF DUP5 DUP3 DUP6 ADD PUSH2 0xC6 JUMP JUMPDEST SWAP2 POP POP SWAP3 SWAP2 POP POP JUMP JUMPDEST PUSH2 0x2AB DUP1 PUSH2 0x117 PUSH1 0x0 CODECOPY PUSH1 0x0 RETURN INVALID PUSH1 0x80 PUSH1 0x40 MSTORE CALLVALUE DUP1 ISZERO PUSH2 0x10 JUMPI PUSH1 0x0 DUP1 REVERT JUMPDEST POP PUSH1 0x4 CALLDATASIZE LT PUSH2 0x2B JUMPI PUSH1 0x0 CALLDATALOAD PUSH1 0xE0 SHR DUP1 PUSH4 0xE19043F5 EQ PUSH2 0x30 JUMPI JUMPDEST PUSH1 0x0 DUP1 REVERT JUMPDEST PUSH2 0x4A PUSH1 0x4 DUP1 CALLDATASIZE SUB DUP2 ADD SWAP1 PUSH2 0x45 SWAP2 SWAP1 PUSH2 0x113 JUMP JUMPDEST PUSH2 0x4C JUMP JUMPDEST STOP JUMPDEST PUSH1 0x0 DUP3 GT PUSH2 0x8F JUMPI PUSH1 0x40 MLOAD PUSH32 0x8C379A000000000000000000000000000000000000000000000000000000000 DUP2 MSTORE PUSH1 0x4 ADD PUSH2 0x86 SWAP1 PUSH2 0x1C3 JUMP JUMPDEST PUSH1 0x40 MLOAD DUP1 SWAP2 SUB SWAP1 REVERT JUMPDEST PUSH1 0x1E DUP3 GT ISZERO PUSH2 0xD3 JUMPI PUSH1 0x40 MLOAD PUSH32 0x8C379A000000000000000000000000000000000000000000000000000000000 DUP2 MSTORE PUSH1 0x4 ADD PUSH2 0xCA SWAP1 PUSH2 0x255 JUMP JUMPDEST PUSH1 0x40 MLOAD DUP1 SWAP2 SUB SWAP1 REVERT JUMPDEST POP POP POP JUMP JUMPDEST PUSH1 0x0 DUP1 REVERT JUMPDEST PUSH1 0x0 DUP2 SWAP1 POP SWAP2 SWAP1 POP JUMP JUMPDEST PUSH2 0xF0 DUP2 PUSH2 0xDD JUMP JUMPDEST DUP2 EQ PUSH2 0xFB JUMPI PUSH1 0x0 DUP1 REVERT JUMPDEST POP JUMP JUMPDEST PUSH1 0x0 DUP2 CALLDATALOAD SWAP1 POP PUSH2 0x10D DUP2 PUSH2 0xE7 JUMP JUMPDEST SWAP3 SWAP2 POP POP JUMP JUMPDEST PUSH1 0x0 DUP1 PUSH1 0x0 PUSH1 0x60 DUP5 DUP7 SUB SLT ISZERO PUSH2 0x12C JUMPI PUSH2 0x12B PUSH2 0xD8 JUMP JUMPDEST JUMPDEST PUSH1 0x0 PUSH2 0x13A DUP7 DUP3 DUP8 ADD PUSH2 0xFE JUMP JUMPDEST SWAP4 POP POP PUSH1 0x20 PUSH2 0x14B DUP7 DUP3 DUP8 ADD PUSH2 0xFE JUMP JUMPDEST SWAP3 POP POP PUSH1 0x40 PUSH2 0x15C DUP7 DUP3 DUP8 ADD PUSH2 0xFE JUMP JUMPDEST SWAP2 POP POP SWAP3 POP SWAP3 POP SWAP3 JUMP JUMPDEST PUSH1 0x0 DUP3 DUP3 MSTORE PUSH1 0x20 DUP3 ADD SWAP1 POP SWAP3 SWAP2 POP POP JUMP JUMPDEST PUSH32 0x696E7465726573742072617465206973206C657373207468616E207A65726F00 PUSH1 0x0 DUP3 ADD MSTORE POP JUMP JUMPDEST PUSH1 0x0 PUSH2 0x1AD PUSH1 0x1F DUP4 PUSH2 0x166 JUMP JUMPDEST SWAP2 POP PUSH2 0x1B8 DUP3 PUSH2 0x177 JUMP JUMPDEST PUSH1 0x20 DUP3 ADD SWAP1 POP SWAP2 SWAP1 POP JUMP JUMPDEST PUSH1 0x0 PUSH1 0x20 DUP3 ADD SWAP1 POP DUP2 DUP2 SUB PUSH1 0x0 DUP4 ADD MSTORE PUSH2 0x1DC DUP2 PUSH2 0x1A0 JUMP JUMPDEST SWAP1 POP SWAP2 SWAP1 POP JUMP JUMPDEST PUSH32 0x696E74657265737420726174652069732067726561746572207468616E203330 PUSH1 0x0 DUP3 ADD MSTORE PUSH32 0x2025000000000000000000000000000000000000000000000000000000000000 PUSH1 0x20 DUP3 ADD MSTORE POP JUMP JUMPDEST PUSH1 0x0 PUSH2 0x23F PUSH1 0x22 DUP4 PUSH2 0x166 JUMP JUMPDEST SWAP2 POP PUSH2 0x24A DUP3 PUSH2 0x1E3 JUMP JUMPDEST PUSH1 0x40 DUP3 ADD SWAP1 POP SWAP2 SWAP1 POP JUMP JUMPDEST PUSH1 0x0 PUSH1 0x20 DUP3 ADD SWAP1 POP DUP2 DUP2 SUB PUSH1 0x0 DUP4 ADD MSTORE PUSH2 0x26E DUP2 PUSH2 0x232 JUMP JUMPDEST SWAP1 POP SWAP2 SWAP1 POP JUMP INVALID LOG2 PUSH5 0x6970667358 0x22 SLT KECCAK256 0xB0 DUP4 SWAP4 DUP3 SHR DUP14 0xAC NOT PUSH12 0xD8733D07A5030C8DDC8D85C7 0xB1 CHAINID SWAP12 0xB5 SDIV 0xCD SSTORE 0xDC SELFBALANCE 0x25 MSIZE PUSH5 0x736F6C6343 STOP ADDMOD SHR STOP CALLER "
        },
        "methodIdentifiers": {
          "onboardLender(uint256,uint256,uint256)": "e19043f5"
        }
      }
    }
  }
}